10001840MEHMET         YILMAZ         2023140000000000000000
10001949MEHMET         YILMAZ         2023091000000000000000
10001978M E H M E T    YILMAZ         2023152000000000000000
10002840MUSTAFA        YILMAZ         2023176000000000000000
10002949MUSTAFA        YILMAZ         2023122000000000000000
10002978MUSTAFA        YILMAZ         2019060000000000000000
10003840AHMET          COPCU          2023166000000000000000
10003949A H M E T      COPCU          2023182000000000000000
10003978AHMET          COPCU          2023105000000000000000
10004840YASAR          OKTEN          2023176000000000000000
10004949YASAR          OKTEN          2023182000000000000000
10004978YASAR          OKTEN          2023104000000000000000
20004840B E R Z A N    KEMAL          2018256000000000000000
20004949BERZAN         KEMAL          2021196000000000000000
20004978BERZAN         KEMAL          2023188000000000000000
41377840SINA EREN      OZBAYRAM       2023181000000000000000
41377949SINA EREN      OZBAYRAM       2023135000000000000000
41377978SINA EREN      OZBAYRAM       2023182000000000000000
